:020000040800F2
:100000007809002025020008E9470008EB470008AE
:10001000EF470008F3470008F7470008000000001A
:10002000000000000000000000000000FB47000886
:10003000FD47000800000000FF4700083D020008DF
:100040003F0200083F0200083F0200083F0200088C
:100050003F0200083F0200083F0200083F0200087C
:100060003F0200083F0200083F0200083F0200086C
:100070003F0200083F0200083F0200083F0200085C
:100080003F0200083F0200083F0200083F0200084C
:100090003F0200083F0200083F0200083F0200083C
:1000A0003F0200083F0200083F0200083F0200082C
:1000B0003F0200083F0200083F0200083F0200081C
:1000C0003F0200083F0200083F0200083F0200080C
:1000D0003F020008192800081D2A00083F020008F6
:1000E0003F0200083F0200083F0200083F020008EC
:1000F0003F0200083F0200083F0200083F020008DC
:100100003F0200083F0200083F0200083F020008CB
:100110003F0200083F020008792A00083F02000859
:100120003F0200083F0200083F0200083F020008AB
:1001300000F002F800F067F80AA090E8000C824492
:100140008344AAF10107DA4501D100F05CF8AFF26F
:10015000090EBAE80F0013F0010F18BFFB1A43F0A5
:1001600001031847A0660000C06600000A444FF073
:10017000000C10F8013B13F0070408BF10F8014B06
:100180001D1108BF10F8015B641E05D010F8016B4B
:10019000641E01F8016BF9D113F0080F1EBF10F8AF
:1001A000014BAD1C0C1B09D16D1E58BF01F801CBD2
:1001B000FAD505E014F8016B01F8016B6D1EF9D555
:1001C0009142D6D37047000000230024002500266A
:1001D000103A28BF78C1FBD8520728BF30C148BFAA
:1001E0000B607047662905F0B486002070471FB584
:1001F00004F0F8FD04000020002105F04BFBE06056
:100200001FBD10B510BD04F0EDFE1146FFF7EFFF66
:1002100003F040FF04F00BFF03B4FFF7F2FF03BC51
:1002200004F04EFF0948804709480047FEE7FEE713
:10023000FEE7FEE7FEE7FEE7FEE7FEE7FEE7FEE796
:1002400004480549054A064B70470000430300086F
:10025000310100087803002078090020780500208B
:10026000780500200CB50020019000906C480068D3
:1002700040F480306A49086000BF6948006800F4B3
:10028000003000900198401C0190009818B9019826
:10029000B0F5A06FF1D16248006800F4003010B1F1
:1002A0000120009001E0002000900098012843D137
:1002B0005C48006840F010005A4908600846006831
:1002C00020F0030008600846006840F00200086063
:1002D00053484068524948600846406848600846AC
:1002E000406840F4806048600846406820F47C1014
:1002F00048600846406840F4E810486008460068D6
:1003000040F08070086000BF4548006800F0007051
:100310000028F9D04248406820F003004049486076
:100320000846406840F00200486000BF3C48406812
:1003300000F00C000828F9D10CBD10B5FFF792FFB2
:1003400010BD10B53648006840F00100344908601F
:10035000084640683449084031494860084600680A
:10036000324908402E4908600846006820F4802081
:1003700008600846406820F4FE0048604FF41F0003
:100380008860FFF7DAFF4FF000602949086010BD70
:1003900010B5002100200022214B5B6803F00C0106
:1003A00021B1042906D0082928D107E0214B224C8D
:1003B000236027E01F4B204C236023E0184B5B6831
:1003C00003F47010164B5B6803F48032022303EBD6
:1003D000904022B9194B4343174C23600DE0104B5A
:1003E0005B6803F4003323B1144B4343124C236086
:1003F00003E0104B4343104C236003E00D4B0E4CC5
:10040000236000BF00BF064B5B68C3F303130C4CB3
:10041000E15C094B1B68CB40074C236010BD00001A
:1004200000100240002002400000FFF8FFFFF6FE2F
:1004300008ED00E000127A000000002000093D00F5
:100440000400002031490143314A1160704770B502
:10045000002100230F22C47804B32D4C246804F437
:10046000E064C4F5E064210AC1F10403CA404478A1
:1004700004FA03F18478144021430901254C0678DD
:10048000A155047804F01F050124AC4005786D11D6
:10049000AD0005F1E025C5F8004109E0047804F05D
:1004A0001F050124AC401C4D0678761145F8264006
:1004B00070BD1A4A0A400243154B1B1F1A60704751
:1004C00039B1134A121D12680243114B1B1D1A60E9
:1004D00006E00F4A121D126882430D4B1B1D1A6065
:1004E0007047042808D14FF0E021096941F0040168
:1004F0004FF0E022116107E04FF0E021096921F09F
:1005000004014FF0E0221161704700000000FA057D
:100510000CED00E000E400E080E100E080FFFF1F60
:1005200010B50446CC48844208D10121042000F0D3
:100530002DFB0021042000F029FB46E0C74884423F
:1005400008D10121082000F021FB0021082000F043
:100550001DFB3AE0C248844208D10121102000F07E
:1005600015FB0021102000F011FB2EE0BD48844255
:1005700008D10121202000F009FB0021202000F0FB
:1005800005FB22E0B848844208D10121402000F058
:10059000FDFA0021402000F0F9FA16E0B348844249
:1005A00008D10121802000F0F1FA0021802000F024
:1005B000EDFA0AE0AE48844207D10121801500F02F
:1005C000E5FA0021A01500F0E1FA10BD10B50121F7
:1005D000084600F0DBFA0021012000F0D7FA10BD38
:1005E0002DE9F041024600250026002000230024CA
:1005F000002791F803C00CF00F0591F803C00CF030
:10060000100CBCF1000F03D091F802C04CEA0505B4
:1006100091F800C0BCF1000F31D0146800202BE02D
:100620004FF0010C0CFA00F3B1F800C00CEA03061D
:100630009E4220D183004FF00F0C0CFA03F7BC430D
:1006400005FA03FC4CEA040491F803C0BCF1280F3E
:1006500006D14FF0010C0CFA00FCC2F814C00AE0FD
:1006600091F803C0BCF1480F05D14FF0010C0CFA12
:1006700000FCC2F810C0401C0828D1D31460B1F8A7
:1006800000C0BCF1FF0F34DD546800202EE000F103
:10069000080C4FF0010808FA0CF3B1F800C00CEA9E
:1006A00003069E4221D183004FF00F0C0CFA03F792
:1006B000BC4305FA03FC4CEA040491F803C0BCF106
:1006C000280F05D100F1080C08FA0CF8C2F81480C4
:1006D00091F803C0BCF1480F07D100F1080C4FF0AE
:1006E000010808FA0CF8C2F81080401C0828CED384
:1006F0005460BDE8F0814FF6FF71018002218170E6
:100700000421C17070470246002093680B400BB172
:10071000012000E0002070470146886880B27047E1
:1007200002460020D3680B400BB1012000E00020FE
:1007300070470146C86880B27047016170474161E7
:1007400070470AB1016100E041617047C1607047C4
:100750004FF480320A4382618161826182698269D9
:10076000704702460020434B18684FF680731840CC
:1007700040EA021008433F4B186070473E49C86189
:100780007047F0B50A46002300240021002500F040
:100790000046B6F1004F02D1364EF16901E0354E08
:1007A0007168C0F3034583B200F44016B6F5401FEC
:1007B00008D121F070612F4E766826F070662D4FBB
:1007C0007E6012E000F48016B6F5801F06D1032685
:1007D00006FA05F4A14341F0706106E0460D3601CA
:1007E00003FA06F6B14341F0706122B1460D3601BD
:1007F00003FA06F6314300F00046B6F1004F02D18D
:100800001C4EF16101E01B4E7160F0BD30B500225D
:100810008B071C0F0F2303FA04F2164B08338C10BE
:1008200053F824309343134C08348D1044F825308A
:1008300023468C1053F824308C07240F00FA04F45C
:1008400023430C4C08348D1044F8253030BD0A4940
:10085000DC3108607047000000080140000C0140D6
:10086000001001400014014000180140001C01402C
:10087000002001400000014000002042DF480068E5
:1008800040F00100DD49086008464068DC49084046
:10089000DA49486008460068DA490840D7490860E4
:1008A0000846006820F4802008600846406820F46C
:1008B000FE0048604FF41F0088607047CF49096808
:1008C00021F48031CD4A11601146096821F480215C
:1008D0001160B0F5803F03D0B0F5802F0ED106E057
:1008E000C649096841F48031C44A116007E0C34930
:1008F000096841F4A021C14A116000E000BF00BFB7
:10090000704710B501460022002300204A11012A39
:1009100002D1BA4C236806E0022A02D1B74C236AFE
:1009200001E0B64C636A01F01F02012494401C40B0
:100930000CB1012000E0002010BD38B5002000906F
:100940000024002500BF3120FFF7DBFF054600989B
:10095000401C00900098B0F5A06F01D0002DF2D09F
:100960003120FFF7CEFF08B1012400E0002420462B
:1009700038BD01460020A14A106820F0F80040EA86
:10098000C10010607047A04908607047024600200F
:100990009A4B586820F47C1042EA01031843974BA5
:1009A0005860704798490866704701460020934A8E
:1009B000506820F003000843506070478F4840683B
:1009C00000F00C007047014600208C4A506820F06F
:1009D000F00008435060704701460020874A506885
:1009E00020F4E06008435060704701460020834ACD
:1009F000506820F4605040EAC1005060704729B14F
:100A00007E4A527A02437D4B5A7204E07B4A527A04
:100A100082437A4B5A7270477B49D83108607047DD
:100A200001460020754A506820F440400843506059
:100A300070470021714A20321170704A82F82010EC
:100A4000012802D004280AD104E001216B4A203297
:100A5000117005E00521694A2032117000E000BFE5
:100A600000BF70476949086070476449096A0143DB
:100A7000624A11627047654944390860704730B571
:100A800000210022002400235C4D6D6805F00C015C
:100A900021B1042905D0082923D105E05C4D05606A
:100AA00022E05B4D05601FE0544D6D6805F4701247
:100AB000524D6D6805F48034022505EB92421CB955
:100AC000544D554305600BE04C4D6D6805F4003501
:100AD0001DB1504D5543056002E04D4D5543056035
:100AE00002E04B4D056000BF00BF444D6D6805F04E
:100AF000F0010909484D6B5C0568DD4045603F4DDC
:100B00006D6805F4E061090A434D6B5C4568DD40A2
:100B100085603A4D6D6805F46051C90A3E4D6B5CC5
:100B20004568DD40C560354D6D6805F44041890B71
:100B30003A4D6B5CC568B5FBF3F5056130BD29B175
:100B40002E4A526902432D4B5A6104E02B4A5269E6
:100B500082432A4B5A61704729B1284A926902435D
:100B6000264B9A6104E0254A92698243234B9A619D
:100B7000704729B1214AD2690243204BDA6104E06F
:100B80001E4AD26982431D4BDA61704729B11B4A64
:100B9000D2680243194BDA6004E0184AD2688243F3
:100BA000164BDA60704729B1144A12690243134B9D
:100BB0001A6104E0114A12698243104B1A617047AE
:100BC00012494039086070470F49C86470470B49A3
:100BD000C87170470948406A40F080700749486210
:100BE000704701460020054A92680A400AB1012078
:100BF00000E00020704701498872704700100240F1
:100C00000000FFF8FFFFF6FE00004242800442426F
:100C100000127A0000093D0014000020240000208A
:100C200010B50446FE48844208D10121C014FFF7E4
:100C3000ADFF0021E014FFF7A9FFC4E0B4F1804F3D
:100C400008D101210846FFF7AEFF00210120FFF780
:100C5000AAFFB8E0F348844208D101210220FFF73F
:100C6000A2FF00210220FFF79EFFACE0EE48844285
:100C700008D101210420FFF796FF00210420FFF78F
:100C800092FFA0E0E948844208D101210820FFF743
:100C90008AFF00210820FFF786FF94E0E4488442A1
:100CA00008D101211020FFF77EFF00211020FFF75F
:100CB0007AFF88E0DF48844208D101212020FFF735
:100CC00072FF00212020FFF76EFF7CE0DA488442AB
:100CD00008D101214014FFF759FF00216014FFF7EC
:100CE00055FF70E0D548844209D10121C804FFF7BF
:100CF0004DFF00214FF40020FFF748FF63E0D0488C
:100D0000844209D101210805FFF740FF00214FF47B
:100D10008010FFF73BFF56E0CA48844209D1012109
:100D20004805FFF733FF00214FF40010FFF72EFFB7
:100D300049E0C548844208D101214020FFF733FF34
:100D400000214020FFF72FFF3DE0C048844208D13A
:100D500001218020FFF727FF00218020FFF723FFDC
:100D600031E0BB48844208D101218015FFF71BFF09
:100D70000021A015FFF717FF25E0B648844209D1EE
:100D800001210804FFF702FF00214FF48030FFF734
:100D9000FDFE18E0B048844209D101214804FFF764
:100DA000F5FE00214FF40030FFF7F0FE0BE0AB48FA
:100DB000844208D101218804FFF7E8FE00214FF4A6
:100DC0008020FFF7E3FE10BD00220288944B98427A
:100DD0000ED0994B98420BD0B0F1804F08D0914B78
:100DE000984205D0904B984202D0904B984204D143
:100DF0004FF68F731A404B881A438D4B984207D099
:100E00008C4B984204D04FF6FF431A40CB881A43CC
:100E100002808B8883850B880385814B98420BD099
:100E2000854B984208D08B4B984205D08A4B98420C
:100E300002D08A4B984201D10B7A03860123838228
:100E4000704770B5002400220023058C4FF6FE7613
:100E500035400584028C8388048B4FF68F752C40B7
:100E6000B51E2C400D882C43751E2A400D892A433F
:100E70004D882A436A4DA8420BD06F4DA84208D036
:100E8000744DA84205D0744DA84202D0734DA842BB
:100E900013D14FF6F7752A404D892A434FF6FB755B
:100EA0002A408D882A434FF6FF652B404FF6FF55A9
:100EB0002B408D892B43CD892B4383800483CD88A0
:100EC0008586028470BD70B5002400220023058C45
:100ED0004FF6EF7635400584028C8388048B48F604
:100EE000FF752C404FF6FF452C400D884FF6FF76DE
:100EF00006EA05252C434FF6DF752A400D8906EAE0
:100F000005152A434D8806EA05152A43444DA84293
:100F100002D0494DA8421DD14FF67F752A404D8918
:100F20004FF6FF7606EA05152A434FF6BF752A40AD
:100F30008D8806EA05152A434FF6FF352B404FF200
:100F4000FF752B408D8906EA85052B43CD8906EA7E
:100F500085052B4383800483CD880587028470BD7B
:100F600070B5002400220023058C4FF6FF66354043
:100F70000584028C8388848B4FF68F752C404FF646
:100F8000FC752C400D882C434FF6FF552A400D89E7
:100F90004FF6FF7606EA05252A434D8806EA052521
:100FA0002A431F4DA84202D0234DA8421DD14FF223
:100FB000FF752A404D894FF6FF7606EA05252A433C
:100FC0004FF6FF352A408D8806EA05252A434EF65E
:100FD000FF752B404DF6FF752B408D8906EA0515F0
:100FE0002B43CD8906EA05152B4383808483CD8866
:100FF0008587028470BD70B5002200230024058C13
:101000004EF6FF7635400584038C8488828B48F643
:10101000FF752A404FF6FF452A400D8820E000006A
:10102000002C01400004004000080040000C00407B
:10103000001000400014004000340140004C01400A
:10104000005001400054014000180040001C0040C6
:1010500000200040004001400044014000480140A1
:101060004FF6FF7606EA05252A434DF6FF752B401D
:101070000D8906EA05352B434D8806EA05352B43D5
:10108000FA4DA84202D0FA4DA84208D14BF6FF759E
:101090002C408D894FF6FF7606EA85152C43848017
:1010A0008283CD88A0F84050038470BD828B4FF2BC
:1010B000FF331A408283828B4FF6FF7303EA0123CA
:1010C0001A4382837047F0B50C4615460022002172
:1010D0000026078C4EF6FF7C07EA0C070784828BFC
:1010E000018C4FF6FF7707EA043640F6FF473A4097
:1010F0004FF6FF7707EA05273A434FF6FF7707EAEF
:1011000003373A43D94FB8420ED0D94FB8420BD02B
:10111000B0F1804F08D0D74FB84205D0D64FB84273
:1011200002D0D64FB84206D14DF6FF77394046F48B
:101130008057394305E047F6FF57394044F480575C
:10114000394382830184F0BD828B4FF6F3731A40DA
:101150008283828B0A4382837047F0B50C46154622
:10116000002200210026078C4FF6FF6C07EA0C07CF
:101170000784828B018C4FF6FF7707EA04264FF62F
:101180000C773A404FF6FF7707EA03172F433A43AD
:10119000B64FB8420ED0B64FB8420BD0B0F1804F28
:1011A00008D0B44FB84205D0B34FB84202D0B34FC5
:1011B000B84206D14FF6FF57394046F4807739439D
:1011C00005E04FF2FF57394044F48077394382837A
:1011D0000184F0BD028B4FF2FF331A400283028B71
:1011E0004FF6FF7303EA01231A4302837047F0B5F9
:1011F0000C461546002200210026078C4FF6EF7C96
:1012000007EA0C070784028B018C4FF6FF7707EA89
:10121000041640F6FF473A404FF6FF7707EA0337D8
:101220003A434FF6FF7707EA05273A438F4FB84214
:101230000ED08F4FB8420BD0B0F1804F08D08D4FF9
:10124000B84205D08C4FB84202D08C4FB84206D17C
:101250004FF6DF77394046F01007394305E04FF687
:101260005F77394044F01007394302830184F0BDB1
:10127000028B4FF6F3731A400283028B0A430283F8
:101280007047F0B50C46154600220021068C4FF63B
:10129000FE773E400684028B018C4FF60C7632407E
:1012A0007E1C06EA03162E433243704EB0420ED027
:1012B0006F4EB0420BD0B0F1804F08D06D4EB042AF
:1012C00005D06D4EB04202D06C4EB04206D14FF602
:1012D000FD76314044F00106314305E04FF6F576E6
:1012E000314044F00106314302830184F0BD70B502
:1012F00005460C465D4885420ED05D4885420BD0C0
:10130000B5F1804F08D05B48854205D05A488542E8
:1013100002D05A48854200D100E000BF208850B971
:101320002389A28861882846FFF7ABFFE188284619
:10133000FFF79EFF25E0208804280AD12389A28890
:1013400061882846FFF753FFE1882846FFF742FFF0
:1013500017E0208808280AD12389A28861882846B6
:10136000FFF7FBFEE1882846FFF7EEFE09E0238940
:10137000A28861882846FFF7A6FEE1882846FFF785
:1013800095FE70BD2DE9F04105460C46002601276B
:10139000608808B9022600E00026A088012801D153
:1013A000022700E001272088A0B92389A28861884C
:1013B0002846FFF766FFE1882846FFF759FF238993
:1013C0003A4631462846FFF712FFE1882846FFF7E4
:1013D00001FF13E02389A28861882846FFF707FFF1
:1013E000E1882846FFF7F6FE23893A46314628462B
:1013F000FFF747FFE1882846FFF73AFFBDE8F08195
:101400000A884B881A438B881A43CB881A430B8966
:101410001A434B891A438B891A43A0F8442070471A
:101420004FF6FF71818000210180C18041800172EF
:1014300070470021018041808180C180018141810C
:101440008181C1817047002101804180012181801B
:101450000021C1800181704700210180418081808D
:10146000C18001814181818170470000002C0140D1
:10147000003401400004004000080040000C00401F
:1014800021B1028842F00102028004E002884FF696
:10149000FE731A400280704731B1B0F8442042F424
:1014A0000042A0F8442005E0B0F84420C2F30E0248
:1014B000A0F8442070471AB183890B43838102E06E
:1014C00083898B43838170478182704741EA02039D
:1014D000A0F8483070471AB183890B43838102E03A
:1014E00083898B438381704701894FF6F8721140DD
:1014F000018170470A46002101894FF68F73194018
:1015000011430181704730B504460D4629462046F7
:10151000FFF7F0FF208940F00700208130BD2DE962
:10152000F04104460D4616461F46602D06D13B4647
:10153000012231462046FFF75AFE05E03B460122D4
:1015400031462046FFF79DFE29462046FFF7D2FF91
:10155000208940F007002081BDE8F08130B50C46BD
:1015600000210189C9B24FF6FF7505EA032515432D
:1015700025432943018130BD2DE9F04105460E4642
:1015800017469846002443463A4631462846FFF718
:10159000E5FF2C894FF6F870044044F007044FF63D
:1015A0008F70044044F070042C81BDE8F081F0B5E8
:1015B00004460D4616461F463B46324629462046FF
:1015C000FFF7CCFF208940F480402081F0BD0185E9
:1015D000828270470A46002101884FF68F731940B6
:1015E000114301807047F0B50C4615461E46002198
:1015F000002200230189028B038C4FF6F8773940D3
:1016000021434FF6FC473A4040F201173A434FF668
:10161000DD773B404FF6FF7707EA06172F433B4342
:10162000018102830384F0BD0A460021018B4FF63D
:101630008F7319401143018370470A460021018BC3
:1016400048F6FF7319404FF6FF7303EA022319436C
:10165000018370470A460021818B4FF68F73194032
:101660001143818370470A460021818B48F6FF733E
:1016700019404FF6FF7303EA022319438183704731
:1016800021B1028842F08002028004E002884FF615
:101690007F731A400280704721B1828842F00402B1
:1016A000828004E082884FF6FB731A408280704784
:1016B00021B1828842F00802828004E082884FF6DD
:1016C000F7731A408280704721B1828842F001028C
:1016D000828004E082884FF6FE731A408280704751
:1016E0000A460021018B4FF6F7731940114301831D
:1016F00070470A460021018B4FF2FF7319404FF6E5
:10170000FF7303EA02231943018370470A4600214D
:10171000818B4FF6F77319401143818370470A4656
:101720000021818B4FF2FF7319404FF6FF7303EADC
:1017300002231943818370470A460021018B4FF62B
:10174000FB7319401143018370470A460021018B46
:101750004FF6FF3319404FF6FF7303EA0223194394
:10176000018370470A460021818B4FF6FB731940B5
:101770001143818370470A460021818B4FF6FF3366
:1017800019404FF6FF7303EA022319438183704720
:101790000A460021018B4FF67F73194011430183E4
:1017A00070470A460021018BC1F30E014FF6FF730B
:1017B00003EA02231943018370470A460021818B03
:1017C0004FF67F7319401143818370470A46002109
:1017D000818BC1F30E014FF6FF7303EA0223194315
:1017E000818370470A460021018C4FF6FD73194032
:1017F0001143018470470A460021018C4FF6F773AC
:1018000019401143018470470A460021018C4FF6AC
:10181000DF7319404FF6FF7303EA02131943018483
:1018200070470A460021018C4FF67F7319404FF62E
:10183000FF7303EA02131943018470470A4600212B
:10184000018C4FF6FF5319404FF6FF7303EA022352
:101850001943018470470A460021018C4FF2FF733F
:1018600019404FF6FF7303EA0223194301847047BE
:101870000A460021018C4DF6FF7319404FF6FF73A5
:1018800003EA023319430184704730B50023012471
:101890008C40A3B2048C9C430484048C02FA01F5AE
:1018A000ADB22C43048430BD30B5002304248C40F9
:1018B000A3B2048C9C430484048C02FA01F5ADB2FB
:1018C0002C43048430BD70B5034600200024184624
:1018D000183001258D40ACB21D8CA5431D8409B183
:1018E000082909D100EB6100056825F07005056045
:1018F0000568154305600EE00D1FC5F34E0528442D
:10190000056825F4E045056005684FF6FF7606EAB0
:1019100002263543056070BD21B1028842F0020203
:10192000028004E002884FF6FD731A40028070477F
:1019300021B1028842F00402028004E002884FF6DE
:10194000FB731A400280704721B1828842F0800206
:10195000828004E082884FF67F731A40828070474D
:1019600002884FF6F7731A40028002880A43028009
:10197000704782884FF68F731A40828082880A43AC
:101980008280704702894FF6F8731A4002810289FB
:101990000A430281704702894FF67F731A40028121
:1019A00002890A43028170478184704781857047AC
:1019B000818670470187704781877047A0F8401083
:1019C000704702884FF6FF431A40028002880A439C
:1019D000028070470146888E70470146088F704725
:1019E0000146888F70470146B1F8400070470146B4
:1019F000888C70470146088D704702460020138A84
:101A00000B400BB1012000E000207047CA43028266
:101A1000704730B50246002000230024158A05EAED
:101A20000103958905EA010413B10CB1012000E01E
:101A3000002030BDCA4302827047000010B5044642
:101A4000FB48844209D101218803FFF79FF8002158
:101A50004FF48040FFF79AF832E0F648844209D10B
:101A600001214804FFF79FF800214FF40030FFF7F1
:101A70009AF825E0F048844209D101218804FFF753
:101A800092F800214FF48020FFF78DF818E0EB4822
:101A9000844209D10121C804FFF785F800214FF4E1
:101AA0000020FFF780F80BE0E548844208D10121CF
:101AB0000805FFF778F800214FF48010FFF773F85E
:101AC00010BD2DE9F04786B005460E460024A2461B
:101AD00000BFA1460027B08900B100BF2F462C8A65
:101AE0004CF6FF700440F08804432C82AC894EF61B
:101AF000F3100440B08831890843718908430443D6
:101B0000AC81AC8A4FF6FF400440B0890443AC82FC
:101B100001A8FEF7B4FFC648874202D1DDF810A045
:101B200001E0DDF80CA0A88900F4004040B10AEB08
:101B3000CA0000EB0A1031684900B0FBF1F807E079
:101B40000AEBCA0000EB0A1031688900B0FBF1F81B
:101B50006420B8FBF0F004012009642101FB108926
:101B6000A88900F4004040B1322000EBC900B0FB6E
:101B7000F1F000F00700044308E0322000EB091008
:101B80006421B0FBF1F000F00F0004432C8106B09B
:101B9000BDE8F0874FF41651016000218180C180BB
:101BA00001810C21418100218181704710B50246DD
:101BB0000020108A4FF2FF0318400B884C88234303
:101BC0008C882343CC8823431843108210BD002106
:101BD000018041808180C180704721B1828942F4B7
:101BE0000052828104E082894DF6FF731A4082819F
:101BF0007047F0B50346002400260025002040F67B
:101C00006A17B94200D100BF1846C1F3421401F06F
:101C10001F06012707FA06F5012C01D10C3004E05C
:101C2000022C01D1103000E014301AB107682F43A4
:101C3000076002E00768AF430760F0BD1AB1838A0E
:101C40000B43838202E0838A8B4383827047028A3C
:101C50004FF6F0731A400282028A0A4302827047EA
:101C600082894FF2FF731A40828182890A438281FE
:101C7000704721B1828942F00202828104E08289A8
:101C80004FF6FD731A4082817047028A4FF6DF7368
:101C90001A400282028A0A430282704721B1028AF4
:101CA00042F48042028204E0028A4BF6FF731A403B
:101CB00002827047C1F3080282807047014688881B
:101CC000C0F308007047818941F0010181817047AC
:101CD000028BD2B20283028B42EA01220283704756
:101CE000028B02F47F420283028B0A430283704715
:101CF00021B1828A42F02002828204E0828A4FF679
:101D0000DF731A408282704721B1828A42F010024A
:101D1000828204E0828A4FF6EF731A408282704713
:101D200021B1828A42F00802828204E0828A4FF660
:101D3000F7731A408282704721B1828942F40042CF
:101D4000828103E08289C2F30E028281704721B151
:101D5000828A42F40062828204E0828A4FF2FF7338
:101D60001A4082827047828A4FF6FB731A40828241
:101D7000828A0A438282704721B1828A42F002023B
:101D8000828204E0828A4FF6FD731A408282704795
:101D900002460020B1F5007F00D100BF13880B4040
:101DA0000BB1012000E00020704701F40072B2F591
:101DB000007F00D100BFCA430280704770B5024661
:101DC000002400230025002040F66A16B14200D10D
:101DD00000BFC1F3421501F01F03012606FA03F309
:101DE000012D02D19689334006E0022D02D1168AD8
:101DF000334001E0968A33400C12012606FA04F4BF
:101E00001688344013B10CB1012000E0002070BDF1
:101E100010B50022002340F66A14A14200D100BF91
:101E20000A1201249440A3B2DC43048010BD0000D8
:101E3000003801400044004000480040004C004091
:101E40000050004008B501211020FEF785FE4FF438
:101E50000050ADF8000010208DF8030003208DF82D
:101E6000020069460F48FEF7BBFB08BD70B504468B
:101E70000D480068401C0C490860A04210D14FF486
:101E800000510848FEF73FFCC0F10100C5B22A46E8
:101E90004FF400510348FEF754FC0020024908604B
:101EA00070BD00000010014028000020002001E06B
:101EB000411CC8B20A28FBDB704710B54FF4006123
:101EC0007F48FEF73AFC4FF480617D48FEF735FC11
:101ED000FFF7ECFF4FF400617948FEF730FCFFF7A5
:101EE000E5FF4FF480617648FEF729FCFFF7DEFF3F
:101EF00010BD10B54FF400617148FEF720FC4FF49F
:101F000080616F48FEF719FCFFF7D0FF4FF40061C6
:101F10006B48FEF712FC10BD70B50446002528E0A2
:101F200004F0800028B14FF400616548FEF705FC1D
:101F300004E04FF400616248FEF701FCFFF7B6FFD2
:101F40004FF480615E48FEF7F8FBFFF7AFFF4FF4F8
:101F500080615B48FEF7F3FB072D04D14FF400616D
:101F60005748FEF7EAFB6006040EFFF79FFF681C68
:101F7000C5B2082DD4DB70BD10B54FF400615048D8
:101F8000FEF7DDFBFFF792FF4FF480614C48FEF750
:101F9000D4FBFFF78BFF4FF480614948FEF7CFFB7E
:101FA000FFF784FF4FF400614548FEF7C6FB10BD04
:101FB00010B54FF400614248FEF7BFFBFFF776FF14
:101FC0004FF480613E48FEF7B8FBFFF76FFF4FF418
:101FD00080613B48FEF7B3FBFFF768FF10BD70B5AB
:101FE00005460024002619E06006040E4FF48061C7
:101FF0003348FEF7A2FBFFF759FF4FF4006130486A
:10200000FEF781FB08B1601CC4B24FF480612C481C
:10201000FEF795FBFFF74AFF701CC6B2082EE3DB04
:1020200015B9FFF7C5FF01E0FFF7A6FF204670BD19
:1020300010B54FF400612248FEF77FFBFFF736FF33
:102040004FF480611E48FEF778FBFFF72FFF4FF437
:1020500000611B48FEF757FB08B1012400E0002493
:102060004FF480611648FEF76AFBFFF71FFF20461A
:1020700010BD08B501210820FEF76EFD4FF4406049
:10208000ADF8000003208DF8020014208DF8030045
:1020900069460B48FEF7A4FAFFF72BFF08BD70B5A1
:1020A0000446FFF7E6FFFFF708FF2046FFF734FF7F
:1020B000FFF7BEFF0546FFF71CFF284670BD000076
:1020C000000C01407047000010B5482000F0D2FB22
:1020D000FFF7F8FFFFF7B6FE4FF4E13000F014FB16
:1020E0004FF4165000F01CFC00F0B6FF01F0F3FABC
:1020F0004FF4B4614FF47A7001F060FA4B212F482D
:10210000FFF756FC002001F0A2FA4FF4FA7000F03D
:10211000CBFB012001F09BFA01F042F901214FF4C1
:10212000616000F07BF800F06AF947F230504FF040
:102130008041888400F0BEF947F230502049088081
:1021400000F003FA47F230501E49088000F044FACC
:1021500047F230501C49088001F025FE01F0C0FC18
:1021600002220021084601F0B2FD032200211020C6
:1021700001F0ADFD102315A20021582001F08AFDC9
:102180000C2314A20221002001F084FD0C2316A2CE
:102190000321002001F07EFD0C2318A20421002061
:1021A00001F078FD0C2319A20621002001F072FD38
:1021B00000F0ECF8642000F077FB10BD002C01402B
:1021C0002404004024080040240C00406D2F6D6959
:1021D0006E000000413A202020202020423A20209A
:1021E0002020202000000000443A20202020202031
:1021F000433A20202020202000000000503A2020D8
:1022000020493A202020443A202020005365745F62
:10221000433A2020202052504D00000030B589B0B4
:1022200005460C4601214803FEF796FC01211020CB
:10223000FEF792FC4FF47070ADF8200018208DF876
:10224000230003208DF8220008A9FE48FEF7C8F9F4
:10225000681E80B2ADF81800601E80B2ADF81400A0
:102260000020ADF81A00ADF816008DF81C0005A985
:10227000F548FEF7A9FD7020ADF804000120ADF887
:1022800006000020ADF810003220ADF80A00002052
:10229000ADF80C0001A9EC48FEF7D3FD0821EA488F
:1022A000FFF71EFA7020ADF804000120ADF806001B
:1022B0000020ADF810003220ADF80A000020ADF883
:1022C0000C0001A9E048FEF7FEFD0821DE48FFF7FB
:1022D00010FA7020ADF804000120ADF806000020CF
:1022E000ADF810003220ADF80A000020ADF80C0067
:1022F00001A9D548FEF734FE0821D348FFF706FAB6
:102300006020ADF804000120ADF806000020ADF813
:1023100010003220ADF80A000020ADF80C0001A931
:10232000C948FEF768FE0821C748FFF7F8F9012100
:10233000C548FFF7A5F90121C348FFF7A1F801211E
:10234000C148FFF7A9F809B030BDBF4A3432108048
:102350007047BD4A383210807047BB4A3C3210800B
:102360007047B94A40321080704770B506460C4637
:1023700015463046FFF7E9FF2046FFF7EAFF2846FB
:10238000FFF7EBFF1846FFF7ECFF70BD1FB501210B
:102390001020FEF7EEFB41F28730ADF8080040F266
:1023A000CF20ADF804000020ADF80A00ADF806001B
:1023B0008DF80C0001A9A548FEF706FD0121A348F0
:1023C000FFF724FB01221146A048FFF774F84FF4F1
:1023D0004070FEF737F836208DF8000005208DF8A4
:1023E000010000208DF8020001208DF803006846EE
:1023F000FEF72DF801219548FFF742F81FBD00B503
:1024000087B001210D20FEF7A7FB01219048FEF7C0
:10241000B8F901218F48FEF7B4F90820ADF818008B
:1024200004208DF81B0003208DF81A0006A98A48A5
:10243000FEF7D6F84FF40040ADF8180006A987481B
:10244000FEF7CEF801210846FEF793FB4FF08040DF
:10245000FEF7E6FB03A8FEF7E3FF0020ADF80C0053
:102460004EF66020ADF810000020ADF81200ADF877
:102470000E0003A94FF08040FEF7A6FC00231A4689
:1024800003214FF08040FFF7AEF86846FEF7DBFF10
:102490000020ADF8080069464FF08040FEF727FFA6
:1024A00000204FF08041888401218807FEF7E8FF73
:1024B00007B000BD00B587B001210920FEF74CFB35
:1024C0003020ADF8180004208DF81B0003208DF893
:1024D0001A0006A96048FEF783F801210220FEF7E2
:1024E00048FB01215E48FEF74CF95E48FEF798FB79
:1024F00003A8FEF795FF0020ADF80C004EF6602013
:10250000ADF810000020ADF81200ADF80E0003A9E0
:102510005448FEF759FC00231A4603215148FFF79F
:1025200062F86846FEF78FFF0020ADF808006946A4
:102530004C48FEF7DCFE00214A48FFF735FA01213E
:102540004848FEF79DFF07B000BD00B587B00121E8
:102550000820FEF701FBC020ADF8180004208DF81C
:102560001B0003208DF81A0006A93B48FEF738F837
:1025700001210420FEF7FDFA3B48FEF751FB03A8BA
:10258000FEF74EFF0020ADF80C004EF66020ADF8CF
:1025900010000020ADF81200ADF80E0003A932487B
:1025A000FEF712FC00231A4603212F48FFF71BF801
:1025B0006846FEF748FF0020ADF8080069462A4843
:1025C000FEF795FE00212848FFF7EEF90121264885
:1025D000FEF756FF07B000BD00B587B0012104200B
:1025E000FEF7BAFA0320ADF8180004208DF81B009E
:1025F00003208DF81A0006A91848FDF7F1FF012104
:102600000820FEF7B6FA1948FEF70AFB03A8FEF702
:1026100007FF0020ADF80C004EF66020ADF810006A
:102620000020ADF81200ADF80E0003A90F48FEF728
:10263000CBFB00231A4603210C48FEF7D4FF684663
:1026400016E000000010014000340140001000407E
:102650000002300000031800000C01400008014097
:1026600000081A000004004000080040000C004070
:10267000FEF7E9FE0020ADF8080069461F48FEF7A6
:1026800036FE00211D48FFF78FF901211B48FEF798
:10269000F7FE07B000BD0146022906D003290ED07F
:1026A000042914D0052924D119E04FF08042928CDE
:1026B00010B247F230524FF080439A841BE0104A28
:1026C000128810B247F230520D4B1A8013E00D4AB7
:1026D000128810B247F230520A4B1A800BE0074AB8
:1026E0002432128810B247F23052044B24331A803D
:1026F00001E0002000BF00BF70470000000C004058
:10270000240400402408004010B586B0044601218E
:1027100044F20400FEF720FA4FF40070ADF8140004
:1027200018208DF8170003208DF8160005A94C48D5
:10273000FDF756FF4FF48060ADF8140004208DF8CB
:10274000170005A94648FDF74BFF01940020ADF89E
:102750000800ADF80A00ADF80C00ADF810000C2030
:10276000ADF80E0001A93F48FFF7ABF9012240F296
:1027700025513C48FFF73DFA01213A48FFF72DFA71
:1027800006B010BD70B504460D46E1B23548FFF7FE
:1027900091FA00BF80213348FFF7FAFA0028F9D0F8
:1027A000204670BD10B5044600BF20212D48FFF71C
:1027B000EFFA0028F9D02B48FFF780FA10BD70B56A
:1027C00004460D4640212748FFF7EFFA80212548AF
:1027D000FFF71EFB13E021782248FFF76BFA00BFDA
:1027E00040212048FFF7D4FA0128F9D140211D48A3
:1027F000FFF7DBFA80211B48FFF70AFB641C281E49
:10280000A5F10105E7D170BD0022174B1A60174AE8
:102810001160174A1060704710B540F225511148F9
:10282000FFF7CCFAD8B10F48FFF748FAC4B20F4807
:1028300000680D49096888420CD90D480068047089
:102840000B480068401C0A49086007480068401CA3
:102850000549086040F225510248FFF7D9FA10BD3A
:102860000008014000380140300000203400002002
:102870002C00002010B504466FF00400FDF731FE77
:10288000E11704EB5171C1F3C701234A11701046DF
:10289000007800EB4001C1EBC0104FF6FF7101EA78
:1028A000C0001E49088010BD01461C4A12884A43D8
:1028B0004FF0E0235A6100229A6101221A6100BFA1
:1028C0004FF0E022106900F001021AB100F48032EA
:1028D000002AF5D000224FF0E0231A619A61704778
:1028E00001460D4A12784A434FF0E0235A61002214
:1028F0009A6101221A6100BF4FF0E022106900F0D6
:1029000001021AB100F48032002AF5D000224FF003
:10291000E0231A619A617047380000203A000020D5
:1029200010B586B0044601210420FEF715F90121F7
:102930004804FEF71EF90420ADF8140018208DF8A5
:10294000170003208DF8160005A94648FDF748FE3C
:102950000820ADF8140004208DF8170005A941489F
:10296000FDF73EFE01940020ADF80800ADF80A0026
:10297000ADF80C00ADF810000C20ADF80E0001A968
:102980003948FFF79EF84FF4E060FDF75BFD262025
:102990008DF8000000208DF801008DF80200012064
:1029A0008DF803006846FDF752FD012240F22551E3
:1029B0002D48FFF71EF901212B48FFF70EF906B04D
:1029C00010BD70B504460D4640212748FFF7EDF9CC
:1029D00080212548FFF71CFA13E021782248FFF7F1
:1029E00069F900BF40212048FFF7D2F90128F9D149
:1029F00040211D48FFF7D9F980211B48FFF708FA4D
:102A0000641C281EA5F10105E7D170BD0022174BFB
:102A10001A60174A1160174A1060704710B540F2EB
:102A200025511148FFF7CAF9D8B10F48FFF746F909
:102A3000C4B20F4800680D49096888420CD90D4896
:102A4000006804700B480068401C0A490860074889
:102A50000068401C0549086040F225510248FFF714
:102A6000D7F910BD0008014000440040400000209C
:102A7000440000203C0000202DE9F84F0121F948D6
:102A8000FEF7BBFF00287DD00121F648FEF7D2FFFC
:102A9000F5480078012876D10520FFF7FCFDA0F568
:102AA000EA403038F14908600220FFF7F4FDA0F554
:102AB000EA403038EE4908600320FFF7ECFDA0F54E
:102AC000EA403038EB4908600420FFF7E4FDA0F548
:102AD000EA403038E8490860E4480068E449096899
:102AE0000844E44909680844E349096800EB010A1D
:102AF0004FEAEA700AEB907080104FF496614843F9
:102B00004FF4C35190FBF1FB584602F00AFF804698
:102B1000DA4ADB4B02F01CFF0646DA4ADA4B02F0D7
:102B200017FF044602F0CCFED8490860084600684A
:102B300003F00CF8044622460B46D5A1D64801F016
:102B40005FFE1023D44A0021302001F0A3F8C748CB
:102B50000068002804DAC54800684042C34908609C
:102B6000C3480068002804DAC14800684042C049F0
:102B70000860C0480068002807DABE480068404284
:102B8000BC4901E049E263E00860BB4800680028F6
:102B900004DAB94800684042B7490860B3480068A1
:102BA0004FF4966148434FF4C35190FBF1F0BB4999
:102BB00008600C20032300900846022102681020C0
:102BC00001F024F8AA4800684FF4966148434FF496
:102BD000C35190FBF1F0B24908600C200323009030
:102BE000084602210268502001F010F8A24800684F
:102BF0004FF4966148434FF4C35190FBF1F0A9495B
:102C000008600C2003230090084619460268102033
:102C100000F0FCFF974800684FF4966148434FF47A
:102C2000C35190FBF1F0A04908600C2003230090F1
:102C3000084619460268502000F0E8FF0C200323E4
:102C400000909A4806210268302000F0DFFFE4E19E
:102C50000520FFF720FDA0F5EA40303883490860E1
:102C60000220FFF718FDA0F5EA40303880490860DF
:102C70000320FFF710FDA0F5EA4030387D490860D9
:102C80000420FFF708FDA0F5EA4030387A490860D3
:102C90007648006876490968084476490968084416
:102CA0007549096800EB010A4FEAEA700AEB907077
:102CB00080104FF4966148434FF4C35190FBF1FBF1
:102CC000584602F02EFE06466C4A6D4B02F040FE5E
:102CD00004466C4A6C4B02F03BFE804602F0F0FD6D
:102CE0006A4908600846006802F030FF0446224640
:102CF0000B4667A1684801F083FD1023664A002156
:102D0000302000F0C7FF59480068002804DA57480F
:102D1000006840425549086055480068002804DAB8
:102D200053480068404252490860524800680028F1
:102D300004DA5048006840424E4908604E48006836
:102D4000002804DA4C48006840424B490860574864
:102D500000684FF4C35148434FF4966190FBF1F47F
:102D600021464248006801F09AF8514908604F48EE
:102D700000684FF4C35148434FF4966190FBF1F45F
:102D800021463B48006801F0C3F84A4908604748BB
:102D900000684FF4C35148434FF4966190FBF1F43F
:102DA00021463448006801F0ECF8434908603F4888
:102DB00000684FF4C35148434FF4966190FBF1F41F
:102DC00021462D48006801F015F93C490860384853
:102DD000006810F1030F03DB35480068032806DDA7
:102DE0003748006832490968084435490860314865
:102DF000006810F1030F03DB2E480068032806DD8E
:102E0000304800682B49096808442E4908602A4860
:102E1000006810F1030F03DB27480068032806DD74
:102E2000294800682449096808442749086023485C
:102E3000006810F1030F03DB20480068032806DD5B
:102E4000224800681D4909680844204908601C4858
:102E5000006840F6AC5188423ADD084618490860DF
:102E60003DE0000000100040D40200204800002097
:102E70004C0000205000002054000020A4703D0AA7
:102E8000D7A3B03F6F1283C0CA2109408C00002035
:102E900025322E3266000000950000207C000020C4
:102EA000800000208800002084000020780000209E
:102EB000680000206C0000207000002074000020DA
:102EC000580000205C00002060000020640000200A
:102ED00053480068002802DA002051490860514830
:102EE000006840F6AC51884203DD08464D49086051
:102EF00006E04C480068002802DA002049490860D2
:102F00004948006840F6AC51884203DD084646490E
:102F1000086006E044480068002802DA00204249C0
:102F200008604248006840F6AC51884203DD08461C
:102F30003E49086006E03D480068002802DA0020AB
:102F40003A49086036480088394908803548008881
:102F5000091D088034480088091D0880334800880E
:102F6000091D088000F09AFF324800684FF496610E
:102F700048434FF4C35190FBF1F02F4908600C20F7
:102F800003230090084602210268102000F03EFE54
:102F90002A4800684FF4966148434FF4C35190FBB0
:102FA000F1F0274908600C20032300900846022115
:102FB0000268502000F02AFE224800684FF4966113
:102FC00048434FF4C35190FBF1F01F4908600C20B7
:102FD00003230090084619460268102000F016FEF0
:102FE0001A4800684FF4966148434FF4C35190FB70
:102FF000F1F0174908600C20032300900846194699
:103000000268502000F002FE0C20032300901148BB
:1030100006210268302000F0F9FDBDE8F88F0000BD
:10302000580000205C0000206000002064000020A8
:1030300034340140480000207C0000204C00002077
:103040008000002054000020880000205000002054
:10305000840000207800002008B501210420FDF73D
:103060007BFDF020ADF8000028208DF803006946B4
:10307000CA48FDF7B5FA08BD10B58021C748FDF76D
:1030800042FBD0B94021C548FDF73DFB012814D1D2
:103090002021C248FDF737FB01280ED11021BF487F
:1030A000FDF731FB48B940F6B8331A4619461846C1
:1030B000FFF75BF900F01CFA6EE18021B748FDF7DD
:1030C00022FBC0B94021B548FDF71DFB98B920216E
:1030D000B248FDF718FB70B91021B048FDF713FB9B
:1030E00048B940F6B8331A4619461846FFF73DF975
:1030F00000F0FEF950E18021A848FDF704FBC8B9B3
:103100004021A648FDF7FFFAA0B92021A348FDF70A
:10311000FAFA01280ED11021A048FDF7F4FA48B9B7
:1031200040F6B833002211461846FFF71EF900F0AA
:10313000DFF931E180219948FDF7E5FA48BB4021EC
:103140009648FDF7E0FA20BB20219448FDF7DBFA12
:1031500001281ED110219148FDF7D5FA012818D178
:1031600040F6B8331A4619461846FFF7FEF800F045
:10317000E9F9C820FFF798FB00BF40218748FDF719
:10318000C2FA0128F9D100F0B3F93220FFF78CFB25
:1031900002E180218148FDF7B6FA50BB40217F480B
:1031A000FDF7B1FA012824D120217C48FDF7ABFAC4
:1031B00001281ED110217948FDF7A5FA012818D160
:1031C00040F6B8331A4619461846FFF7CEF800F015
:1031D000B9F93220FFF768FB00BF40216F48FDF7C7
:1031E00092FA0128F9D100F083F93220FFF75CFB55
:1031F000D2E080216948FDF786FA28BB4021674864
:10320000FDF781FA00BB20216448FDF77CFAD8B9AC
:1032100010216248FDF777FA012815D140F6B8333E
:103220001A4619461846FFF7A0F800F08BF900BFC0
:1032300040215A48FDF767FA0128F9D100F058F902
:103240003220FFF731FBA7E080215448FDF75BFAFD
:10325000C8B940215148FDF756FA012813D1202161
:103260004E48FDF750FA70B910214C48FDF74BFA63
:1032700048B940F6B833002211461846FFF775F8F2
:1032800000F036F988E080214448FDF73CFA012837
:1032900028D140214148FDF736FA012822D12021CA
:1032A0003E48FDF730FAE8B910213C48FDF72BFA0B
:1032B000C0B940F6B8331A4619461846FFF755F814
:1032C00000F032F9C820FFF7EFFA00BF20213348A1
:1032D000FDF719FA0128F9D100F00AF93220FFF7B9
:1032E000E3FA59E080212D48FDF70DFA012829D194
:1032F00040212A48FDF707FA012823D12021274839
:10330000FDF701FA01281DD110212448FDF7FBF932
:10331000C0B940F6B8331A4619461846FFF725F8E3
:1033200000F002F93220FFF7BFFA00BF20211B484E
:10333000FDF7E9F90128F9D100F0DAF83220FFF7BA
:10334000B3FA29E080211548FDF7DDF9012823D1E2
:1033500040211248FDF7D7F9F0B920210F48FDF7B9
:10336000D2F9C8B910210D48FDF7CDF9A0B940F642
:10337000B8331A4619461846FEF7F7FF00F0D4F89E
:1033800000BF20210548FDF7BEF90128F9D100F062
:10339000AFF83220FFF788FA10BD000000080140A6
:1033A00008B501211020FDF7D7FB41F60F40ADF81D
:1033B000000010208DF8030003208DF802006946FC
:1033C0007C48FDF70DF901212020FDF7C5FB042005
:1033D000ADF8000010208DF8030003208DF80200E6
:1033E00069467548FDF7FCF808BD10B504463CB9C0
:1033F00002217048FDF7A1F901216E48FDF79FF900
:10340000012C07D101216B48FDF797F9022169488A
:10341000FDF795F9022C07D101216648FDF78FF9D8
:1034200002216448FDF78BF910BD10B504463CB984
:1034300004216048FDF781F908215E48FDF77FF916
:10344000012C07D108215B48FDF777F90421594881
:10345000FDF775F9022C07D104215648FDF76FF9E5
:1034600008215448FDF76BF910BD10B504464CB95E
:103470004FF480614F48FDF760F94FF400614D480B
:10348000FDF75DF9012C07D1E1024A48FDF755F936
:10349000A1024848FDF753F9022C07D1A102454883
:1034A000FDF74DF961024348FDF749F910BD10B52C
:1034B000044644B904214048FDF73FF94FF48051D8
:1034C0003C48FDF73CF9012C07D121033948FDF7B1
:1034D00034F904213848FDF732F9022C07D1E10212
:1034E0003448FDF72CF904213348FDF728F910BDC5
:1034F00010B50020FFF779FF0020FFF796FF0020AE
:10350000FFF7D5FF0020FFF7B0FF10BD10B5012079
:10351000FFF76BFF0120FFF788FF0120FFF7C7FFD0
:103520000120FFF7A2FF10BD10B50120FFF75DFFDE
:103530000020FFF77AFF0120FFF7B9FF0020FFF717
:1035400094FF10BD10B50020FFF74FFF0120FFF7DB
:103550006CFF0020FFF7ABFF0120FFF786FF10BDD7
:1035600010B50020FFF741FF0220FFF75EFF0020AB
:10357000FFF79DFF0220FFF778FF10BD10B5022076
:10358000FFF733FF0020FFF750FF0220FFF78FFF08
:103590000020FFF76AFF10BD10B50220FFF725FFDE
:1035A0000220FFF742FF0220FFF781FF0220FFF712
:1035B0005CFF10BD001001400014014030B589B01F
:1035C00005460C460121C802FDF7C6FA0121042078
:1035D000FDF7C2FA4FF48070ADF8200018208DF886
:1035E000230003208DF8220008A91F48FCF7F8FFEC
:1035F000681E80B2ADF81800601E80B2ADF81400ED
:103600000020ADF81A00ADF8160005A91748FDF71F
:10361000DBFB7020ADF804000120ADF806000020AF
:10362000ADF80A000220ADF80C0001A90F48FDF723
:1036300008FC00210D48FEF753F801210B48FDF767
:103640002BFF01210948FEF71BF809B030BD10B56A
:10365000044624B901210548FDF712FF03E00021CB
:103660000248FDF70DFF10BD00080140002C01408D
:1036700008B54FF4E060FCF7E5FE37208DF8000058
:1036800000208DF8010003208DF8020001208DF844
:1036900003006846FCF7DBFE08BD0EB501212020C3
:1036A000FDF767FAB748FDF7BBFA4FF6FF70ADF8C4
:1036B000040040F26710ADF800000020ADF80600ED
:1036C000ADF802006946AF48FDF77EFB0121AD4829
:1036D000FEF79CF90EBD08B501210820FDF73CFA64
:1036E0004FF48070ADF8000010208DF80300032027
:1036F0008DF802006946A448FCF772FF4FF4007091
:10370000ADF8000004208DF8030069469E48FCF7E0
:1037100067FFFFF7ADFFFFF7C0FF08BD10B54FF41F
:1037200080719948FDF709F81420FFF7D9F84FF494
:1037300080719548FDF703F800BF4FF4007192487F
:10374000FCF7E1FF0028F8D001218E48FDF798FE34
:1037500000BF4FF400718C48FCF7D5FF0028F8D16A
:1037600000218848FDF78CFE8648FEF740F900EB03
:10377000800000EB001040004FF4FA6190FBF1F084
:1037800084B200217F48FEF70FF9204610BD10B526
:10379000FFF7C4FF7D490880084600880F2867DAD4
:1037A00008460088002863D0FFF7F6FE012078491C
:1037B00008702D217748FEF7FBF80020FFF747FF40
:1037C0004FF4FA70FFF770F84FF4FA70FFF76CF8E7
:1037D0000120FFF73CFFFFF7A1FF6C490880084676
:1037E00000880F2808DA0846008828B1FFF7D4FEC1
:1037F00001206949087002E00020674908707321C0
:103800006448FEF7D5F80020FFF721FF4FF4FA7067
:10381000FFF74AF84FF4FA70FFF746F80120FFF778
:1038200016FFFFF77BFF59490880084600880F28DC
:1038300008DA0846008828B1FFF7AEFE0120574994
:10384000087002E000205549087051215148FEF7E8
:10385000AFF80020FFF7FBFE4FF4FA70FFF724F8F3
:103860004FF4FA70FFF720F80120FFF7F0FE01E0B7
:10387000FFF73EFE4948007870B94548007858B9CE
:103880004548007840B9FFF733FE002043490870EF
:103890003F4908704049087040480078C0B93C482A
:1038A0000078012814D13C48007888B900203B49B1
:1038B00008703749087038490870FFF743FE4FF425
:1038C000FA70FEF7F1FFC820FEF7EEFFFFF710FEDB
:1038D00032480078B0B92E480078012812D12E481D
:1038E000007801280ED100202C4908702849087062
:1038F00029490870FFF718FE4FF4FA70FEF7D4FF5D
:10390000FFF7F6FD25480078012815D120480078FA
:10391000012811D12048007870B900201F49087093
:103920001B4908701C490870FFF70CFE4FF4FA7031
:10393000FEF7BAFFFFF7DCFD18480078012820D118
:103940001348007801281CD113480078012818D1A9
:103950000020124908700E4908700F490870FFF7DF
:10396000D5FD4FF4FA70FEF79FFFFFF7EBFD4FF424
:10397000FA70FEF799FF4FF4FA70FEF795FFFFF724
:10398000B7FD10BD00140040000C0140A000002055
:10399000A3000020002C0140A4000020A200002071
:1039A00010B50446FEF789FA7820FEF7B5FAFEF75F
:1039B0003FFB0020FEF7B0FAFEF73AFB2046FEF789
:1039C000ABFAFEF735FBFEF794FA10BD10B50446CE
:1039D000FEF773FA7820FEF79FFAFEF729FB4020E6
:1039E000FEF79AFAFEF724FB2046FEF795FAFEF75B
:1039F0001FFBFEF77EFA10BD70B504460D461DB1E3
:103A0000E0B2FFF7E3FF02E0E0B2FFF7C9FF70BDED
:103A100070B50646002418E004F1B0000021FFF75D
:103A2000EBFF00210846FFF7E7FF00211020FFF71A
:103A3000E3FF002505E001213046FFF7DDFF681CAC
:103A4000C5B2802DF7DB601CC4B2082CE4DB70BD6E
:103A500006E041F6650100E0491E0029FCD1401E48
:103A60000028F6D17047014605E0002001E0421C25
:103A7000D0B27B28FBDB0A1EA1F10101F5D1704712
:103A800070B504460D4605F1B0000021FFF7B4FF04
:103A9000102141EA14100021FFF7AEFF04F00F00DF
:103AA0000021FFF7A9FF70BD10B500218D20FFF7A1
:103AB000A3FF00211420FFF79FFF0021AF20FFF795
:103AC0009BFF10BD10B500218D20FFF795FF002151
:103AD0001020FFF791FF0021AE20FFF78DFF10BDF2
:103AE00070B5002418E004F1B0000021FFF784FF56
:103AF00000210846FFF780FF00211020FFF77CFF20
:103B0000002505E001210020FFF776FF681CC5B203
:103B1000802DF7DB601CC4B2082CE4DB70BD70B5EF
:103B2000002418E004F1B0000021FFF765FF002138
:103B30000846FFF761FF00211020FFF75DFF002519
:103B400005E001210846FFF757FF681CC5B2802D2C
:103B5000F7DB601CC4B2082CE4DB70BD2DE9F04734
:103B600007460E469046994600250024A8F12000FD
:103B7000C5B27F2F02DD0027B01CC6B2B9F1100F0D
:103B800024D131463846FFF77BFF002408E004EBE0
:103B90000511BF4A505C0121FFF72EFF601CC4B223
:103BA000082CF4DB701CC1B23846FFF769FF002413
:103BB00009E004EB05110831B54A505C0121FFF71B
:103BC0001BFF601CC4B2082CF3DB12E03146384600
:103BD000FFF756FF00240AE005EB4501AD4A02EB72
:103BE0004101085D0121FFF707FF601CC4B2062CEC
:103BF000F2DBBDE8F08710B50246012000E050433B
:103C00000B1EA1F10104E1B2F9D110BD2DE9FF5F56
:103C1000074691461E460E9D4FF0000A002435E0EF
:103C2000301B401EC1B20A20FFF7E5FFB9FBF0F0E0
:103C30000A21B0FBF1F201FB1208BAF1000F14D116
:103C4000701EA04211DDB8F1000F0CD1AB4605EBA0
:103C5000DB71491001FB0471C8B22B462022019987
:103C6000FFF77CFF10E04FF0010AAB4605EBDB717C
:103C7000491001FB0471C8B208F13001CAB22B46E9
:103C80000199FFF76BFF00BF601CC4B2B442C7DBF1
:103C9000BDE8FF9F2DE9F04104460F4615469846C2
:103CA00000260FE0AA5D434639462046FFF756FF3F
:103CB00004F10800C4B2782C02DD0024B81CC7B29D
:103CC000701CC6B2A85D0028ECD1BDE8F0812DE9DA
:103CD000F04180460E461546002731464046FFF724
:103CE000CFFE00240AE06C4A02EB8511085D012139
:103CF000FFF782FE781CC7B2601CC4B2102CF2DB46
:103D0000701CC1B24046FFF7BBFE00240CE0690006
:103D1000491C614A02EB4111085D0121FFF76CFE6D
:103D2000781CC7B2601CC4B2102CF0DBBDE8F08177
:103D30002DE9F05F06460F4690461C46DDF828A0A8
:103D40004FF0000BE11704EB5171C910A4EBC10156
:103D500031B92046E11704EB5171C1F3C70506E004
:103D60002046E11704EB5171C910491CCDB23D4604
:103D700015E029463046FFF783FEB1460BE0594671
:103D80000BF1010B1AF801000121FFF735FE09F1D3
:103D9000010000F0FF09C145F1DB681CC5B2A54276
:103DA000E7DBBDE8F09F10B5FEF763F94FF448700C
:103DB000FEF77AFD0021AE20FFF71EFE0021084627
:103DC000FFF71AFE00211020FFF716FE0021402009
:103DD000FFF712FE0021B020FFF70EFE0021812028
:103DE000FFF70AFE0021FF20FFF706FE0021A120B9
:103DF000FFF702FE0021A620FFF7FEFD0021A8200C
:103E0000FFF7FAFD00213F20FFF7F6FD0021C82053
:103E1000FFF7F2FD0021D320FFF7EEFD0021084659
:103E2000FFF7EAFD0021D520FFF7E6FD0021802005
:103E3000FFF7E2FD0021D820FFF7DEFD002105207D
:103E4000FFF7DAFD0021D920FFF7D6FD0021F12090
:103E5000FFF7D2FD0021DA20FFF7CEFD002112206E
:103E6000FFF7CAFD0021DB20FFF7C6FD002130204F
:103E7000FFF7C2FD00218D20FFF7BEFD00211420B9
:103E8000FFF7BAFD0021AF20FFF7B6FD10BD00001F
:103E90007E610008565F0008A500002070472DE9EC
:103EA000FC5F04460D462E1B6F48006801F0F8FECB
:103EB00083466E480168584601F00AFF81466C4807
:103EC000006801F0EDFE00906A480168009801F07A
:103ED000FFFE8346304601F0E3FE0090664801682D
:103EE000009801F0F5FE5946019001F0BDFF8246B1
:103EF000494601F057FE804601F0B6FE07465C4891
:103F00000068594908605A4806603846BDE8FC9F79
:103F10002DE9FC5F04460D462E1B5848006801F051
:103F2000BFFE834651480168584601F0D1FE8146E4
:103F30005348006801F0B4FE00904E4801680098B4
:103F400001F0C6FE8346304601F0AAFE00904A48C2
:103F50000168009801F0BCFE5946019001F084FF11
:103F60008246494601F01EFE804601F07DFE07466E
:103F70004348006841490860414806603846BDE84A
:103F8000FC9F2DE9FC5F04460D462E1B3D48006852
:103F900001F086FE834635480168584601F098FED8
:103FA00081463948006801F07BFE00903148016885
:103FB000009801F08DFE8346304601F071FE0090BE
:103FC0002D480168009801F083FE5946019001F0E8
:103FD0004BFF8246494601F0E5FD804601F044FE74
:103FE0000746294800682749086027480660384680
:103FF000BDE8FC9F2DE9FC5F04460D462E1B2348BF
:10400000006801F04DFE834618480168584601F0EB
:104010005FFE81461E48006801F042FE0090154890
:104020000168009801F054FE8346304601F038FEE6
:10403000009011480168009801F04AFE594601902D
:1040400001F012FF8246494601F0ACFD804601F0C6
:104050000BFE07460E4800680C4908600C480660D5
:104060003846BDE8FC9F0000B8020020B0020020E6
:10407000B4020020AC020020A8020020C0020020F0
:10408000BC020020C8020020C4020020D002002090
:10409000CC020020FEF718F887E30621FE48FEF761
:1040A000B5FC1420FEF700FCFB48C078BA2813D1F9
:1040B000F9480079BE280FD10120F8490870012184
:1040C000F748FDF7DDF940F6C4131A4619461846BD
:1040D000FEF74BF9FEF7D0FFEF48C078BB287DD143
:1040E000ED480079BF28FAD10020EC490870FFF7AD
:1040F000FFF9FFF713FBEB490880084600881928F1
:1041000002DC0120E8490870E74800780128E6D180
:104110000020E5490870FFF73FFA0021E048FDF76D
:10412000AFF90020E1490860E1490860E149086011
:10413000E1490860E1490860E1490860E149086037
:10414000E14908602D21E148FDF732FC0020FFF72E
:104150007EFA4FF4FA70FEF7A7FB4FF4FA70FEF701
:10416000A3FB0120FFF773FAFFF7D8FAD8490870CC
:104170007321D648FDF71CFC0020FFF768FA4FF4C6
:10418000FA70FEF791FB4FF4FA70FEF78DFB0120F9
:10419000FFF75DFAFFF7C2FACE4908704B21CB4812
:1041A000FDF706FC0020FFF752FA4FF4FA70FEF715
:1041B0007BFB4FF4FA70FEF777FB0120FFF747FA1D
:1041C000FFF7ACFAC4490870C248007819283DDCF2
:1041D00008460078192839DDBD4800E0C7E10078BD
:1041E000192833DD40F68C231A4619461846FEF787
:1041F000BCF8FFF7A7F94FF42F70FEF755FB4FF40B
:104200002F70FEF751FBFFF773F90020A7490860F4
:10421000A7490860A7490860A7490860A74908603E
:10422000A7490860A7490860A749086047F23050CD
:104230004FF080418884A9490880A9490880A9498C
:10424000088001219648FDF71BF990E1A14800780C
:1042500019283BDCA0480078192837DA9C480078F8
:10426000192833DD40F68C231A4619461846FEF706
:104270007CF8FFF767F94FF42F70FEF715FB4FF44A
:104280002F70FEF711FBFFF733F900208749086014
:10429000874908608749086087490860874908603E
:1042A00087490860874908608749086047F23050AD
:1042B0004FF080418884894908808949088089496C
:1042C000088001217648FDF7DBF850E1814800784D
:1042D000192841DC8048007819283DDC7C480078AA
:1042E000192839DC40F68C231A4619461846FEF781
:1042F0003CF8FFF70BF94FF42F70FEF7D5FAFFF7F4
:1043000021F94FF42F70FEF7CFFA4FF42F70FEF71C
:10431000CBFAFFF7EDF800206449086064490860B3
:104320006449086064490860644908606449086039
:10433000644908606449086047F230504FF080419A
:10434000888466490880664908806649088001219A
:104350005348FDF795F80AE15E48007819283BDDDF
:104360005D480078192837DC59480078192833DD72
:1043700040F68C231A4619461846FDF7F6FFFFF75C
:10438000E1F84FF42F70FEF78FFA4FF42F70FEF71D
:104390008BFAFFF7ADF800204449086044490860F3
:1043A0004449086044490860444908604449086039
:1043B000444908604449086047F230504FF080415A
:1043C000888446490880464908804649088001217A
:1043D0003348FDF755F8CAE03E48007819283BDD20
:1043E0003D480078192837DC39480078192833DC33
:1043F00040F68C231A4619461846FDF7B6FFFFF71C
:1044000093F84FF42F70FEF74FFA4FF42F70FEF72A
:104410004BFAFFF76DF80020244908602449086032
:104420002449086024490860244908602449086038
:10443000244908602449086047F230504FF0804119
:104440008884264908802649088026490880012159
:104450001348FDF715F88AE01E480078192864DD36
:104460001D480078192860DD1948007819285CDC9F
:1044700040F68C231A4619461846FDF776FFFFF7DB
:1044800053F84FF42F70FEF70FFA4FF42F70FEF72A
:104490000BFAFFF72DF827E0D8020020D402002005
:1044A00000100040A00000209F00002058000020C5
:1044B0005C000020600000206400002068000020F4
:1044C0006C0000207000002074000020002C0140CF
:1044D000D5020020D6020020D7020020240400408C
:1044E00024080040240C00400020B0490860B04976
:1044F0000860B0490860B0490860B0490860B04938
:104500000860B0490860B049086047F230504FF089
:1045100080418884AD490880AD490880AD49088054
:104520000121AD48FCF7ACFF21E0FEF7E1FF0020E0
:104530009E4908609E4908609E4908609E4908603F
:104540009E4908609E4908609E4908609E4908602F
:1045500047F230504FF0804188849C4908809C4944
:1045600008809C49088001219B48FCF789FF9B48F3
:10457000C078B12812D199480079B5280ED1002011
:104580009749087001219448FCF77AFF9548006824
:104590000A309449086000209049C8708F48C0785C
:1045A000B32812D18D480079B7280ED100208C494C
:1045B000087001218848FCF763FF8A4800680A38C0
:1045C0008849086000208549C8708448C078B228AE
:1045D0002BD182480079B62827D100208049087065
:1045E00001217D48FCF74CFF0020704908607049AC
:1045F0000860704908607049086070490860704937
:104600000860704908607049086047F230504FF008
:10461000804188846D4908806D4908806D49088013
:10462000FEF766FF00206D49C8706C48C078B4285A
:104630002BD16A480079B82827D100206849087032
:1046400001216548FCF71CFF0020584908605849C3
:104650000860584908605849086058490860584936
:104660000860584908605849086047F230504FF0D8
:1046700080418884554908805549088055490880FB
:10468000FEF752FF00205549C8705448C078B5283D
:104690002BD152480079B92827D100205049087001
:1046A00001214D48FCF7ECFE0020404908604049DC
:1046B0000860404908604049086040490860404936
:1046C0000860404908604049086047F230504FF0A8
:1046D000804188843D4908803D4908803D490880E3
:1046E000FEF75AFF00203D49C8703C48C078B62804
:1046F0002BD13A480079BA2827D1002038490870D0
:1047000001213548FCF7BCFE0020284908602849F3
:104710000860284908602849086028490860284935
:104720000860284908602849086047F230504FF077
:1047300080418884254908802549088025490880CA
:10474000FEF700FF00202549C8702448C078B8282B
:104750002BD122480079BC2827D10020204908709D
:1047600001211D48FCF78CFE00201049086010490B
:104770000860104908601049086010490860104935
:104780000860104908601049086047F230504FF047
:10479000804188840D4908800D4908800D490880B2
:1047A000FEF7B4FE00200D49C87076E458000020E2
:1047B0005C000020600000206400002068000020F1
:1047C0006C000020700000207400002024040040D1
:1047D00024080040240C004000100040D8020020B3
:1047E000D402002078000020704700BFFEE700BF21
:1047F000FEE700BFFEE700BFFEE770477047704767
:104800000FB41CB5074B06AA7B4469460090059877
:1048100000F0CFFA0020694600F0DEFA1CBC5DF81B
:1048200014FB0000CD05000070B5044685690068E2
:10483000C10601D5302600E02026C00707D070BD94
:10484000D4E9012130469047206A401C20626D1E49
:10485000F6D570BD70B5044685690078C00707D1EC
:1048600070BDD4E9012120209047206A401C2062BD
:104870006D1EF6D570BD2DE9F0474FF0000A894650
:104880000446C0F820A02046E1688847002876D07A
:10489000252806D0D4E901219047206A401C2062D7
:1048A000F1E7E168204600258847C4F81CA00646C9
:1048B0000027C4F818A02A2E09D0304600F0E3FFE4
:1048C00038B304EB8708303EC8F8186019E059F88F
:1048D000041B204604EB87029161E1688847012FA1
:1048E000064618D1E069002820DA25F020051DE0F1
:1048F000D8F8180000EB800006EB40003038C8F80C
:1049000018002046E1688847064600F0BCFF0028F2
:10491000EED1012F0AD02E2E08D12046E16888471B
:104920007F1C0646022F45F02005C4DBA069002845
:1049300003DA404245F00105A061E80701D025F007
:104940001005B6B1A6F14100192802D8203645F469
:1049500000654A463146204625604D46FBF742FC3D
:1049600058B1012806D0ED1D25F0070000F1080917
:1049700089E704E005F1040985E730468AE7206A03
:10498000BDE8F08770477047704770472DE9FF4FCB
:104990000C461E464FF0FF378BB0D2E90001DDF820
:1049A00060800A908A46C1F30A5505B93D46002148
:1049B00008464FF00000BAF1000F00F4400005DA9D
:1049C00000EB80004FF4400101EA50004FEA90599B
:1049D000B9F1010F00DDB9460A9850EA4A000ED03D
:1049E00044F61050A5F2FF3545432F14B8F1000FDF
:1049F0001ED07542291E1EDDC9F100021CE0B8F16F
:104A0000010F4FF0000001D0302103E0F24305E038
:104A10002154401CB042FBDB3046002200212154CF
:104A20000B99C1F80880C1E900200FB0BDE8F08FF4
:104A3000BD1B6D1CDEE74A4600DA694206A800F09D
:104A40005BFA06AB93E8070003AB83E80700504628
:104A50000A9900F03CFB8DE80700A0F500501F38D4
:104A600000900398002D0ADD42F21F014A460844D7
:104A7000002303A90390684600F0A5FD09E0A0F516
:104A800000504A461F38002303A90390684600F0EF
:104A9000AFFD8DE807000004000C03D04FF0FF309D
:104AA000410800E01046B8F1000F03D00022009248
:104AB00015461EE0751E05D400F098F93032625597
:104AC0006D1EF9D5B3460122084302D000227F1C97
:104AD00004E02078302801D100227F1E002A0997A7
:104AE00084D01DE0112D07DA00F080F930326255D4
:104AF0006D1C50EA0102F5D1084302D00098C8B1FC
:104B00000EE00021681E05E0235C625C63542254C1
:104B1000401E491C8142F7DBAB46A81B401E099092
:104B2000002004F80B000B98099AC0F80880C0E92F
:104B3000002B7AE711264FF0000857E72DE9F04FD8
:104B400088460446D21D22F0070191B0D1E9000148
:104B5000CDE90A0100F083FE02460B98C00F01D098
:104B60002D2007E02068810701D52B2002E02021BD
:104B700001EAC000032A099001D0072A05DB034699
:104B80004146204600F078F90BE12078800601D5F7
:104B9000E06900E00620B8F1650F814606D0B8F163
:104BA000660F18D0B8F1670F70D131E00020B9F16D
:104BB000110F009001DB112301E009F101030AAAA2
:104BC00001A90CA8FFF7E2FEDDE90C70002609F14F
:104BD0000105834647E001204B4600904FF0004717
:104BE0000AAA01A90CA8FFF7D1FEDDE90DB00C99C6
:104BF0005D46002610B909F101000D18B9EB05005A
:104C000003D4C0F1FF3609F10105A5EB09002BE043
:104C1000B9F1010F01DA4FF001090020B9F1110FCC
:104C20000090484601DD112300E003460AAA01A9CD
:104C30000CA8FFF7ABFEDDE90C704D46002683465D
:104C4000207800070AD4AB4500DA5D4601A8012DA3
:104C500004DD411911F8011C302907D04F4502DA53
:104C600017F1040F04DA012082460FE06D1EEEE713
:104C7000002F02DCED1B3E4403E0781CA84200DD5F
:104C80007D1CB81B00F1010A4FF000472078000797
:104C900003D4AA4501DB4FF0FF3A0021B7F1004FE2
:104CA0000DF143088DF8431024D002202B23002F50
:104CB00001DA7F422D230A21021EA0F1010000DC4F
:104CC0005FB197FBF1FC97FBF1F201FB1C7C1746EF
:104CD0000CF1300C08F801CDEEE7A8F101000370EB
:104CE0002188090501D5452100E06521A0F10108D1
:104CF00000F8011C09980FA9A1EB0807FF1D00B1DE
:104D00000120411901EBEA70A1693844081A401EDC
:104D1000A0612078C00602D42046FFF785FD0998DF
:104D200028B1D4E901219047206A401C20622078F4
:104D3000C00622D52046FFF777FD1EE0002E04DBDB
:104D4000B34502DD01A8805D00E03020D4E90121F7
:104D50009047206A401C2062761CAAF101005FEA9D
:104D6000000A0AD100F03EF8C0680168405CD4E94E
:104D700001219047206A401C2062281EA5F10105F0
:104D8000DCDC07E0D4E9012118F8010B9047206A28
:104D9000401C2062381EA7F10107F3DC2046FFF714
:104DA00059FD032011B041E601694A1C02610878EF
:104DB000704700B58FB0CDE901310021059105495B
:104DC0007944CDE9031011466846FFF754FD0FB052
:104DD00000BD0000E5FFFFFF0A6802F8010B0A6052
:104DE00070470000004870473803002030B5B0F12C
:104DF0000A024FEA900E71F100034EEA817EB0EB99
:104E00000E0061EB91014FEA101E4EEA017E10EB9D
:104E10000E0041EB11114FEA102E4EEA016E10EB1D
:104E20000E0041EB11214FEA104E4EEA014E10EBFD
:104E30000E0041EB1141401841F100014FEAD00052
:104E400040EA41704FEAD10110EB80054FEA81043E
:104E500044EA907444EB01046D1944EB0404521BC2
:104E6000A3414FF0000348BF0A3200D530BD401CBB
:104E700041F1000130BD00002DE9F0411F4604461C
:104E800003260168072A01F4006004DB08B116A5B7
:104E900005E016A503E008B115A500E015A521F071
:104EA00010002060A069C01EA0610FB1401EA0616B
:104EB0002046FFF7B9FC4FB1D4E9012138469047AD
:104EC000206A401C2062C01C206206E0206AFAE7CB
:104ED000D4E9012115F8010B9047761EF8D220463F
:104EE000FFF7B8FCBDE8F0814E414E006E616E00E8
:104EF000494E4600696E66002DE9F0478146164628
:104F00008AB0354878440DC88DE80D0032487844A1
:104F1000801C03AC0DC884E80D0041F69B300844AA
:104F2000372190FBF1F290FBF1F5A5F1800501FB33
:104F300012041B3C02D56442012000E00020DFF88F
:104F400098A080460027FA44AAF1BE0A0EE0E007C6
:104F50000AD03246684607EB470101230AEB81017C
:104F600000F046FB8DE8070064107F1C002CEED19A
:104F7000194F7F44AE3F19E0E80715D007EB041046
:104F80000DF1180A90E80E008AE80E00C068F042A1
:104F900001D1981908903246012306A903A800F010
:104FA00027FB03AB83E807006D10641C002DE3D1E1
:104FB0004FF0010332466946B8F1000F03A802D052
:104FC00000F001FB01E000F013FBC9E90001C9F8A2
:104FD00008200AB0BDE8F087E418000000487047D8
:104FE000180300207546FFF7F9FFAE460500694635
:104FF000534620F00700854618B020B5FBF720F98E
:10500000BDE820404FF000064FF000074FF00008C9
:105010004FF0000B21F00701AC46ACE8C009ACE84A
:10502000C009ACE8C009ACE8C0098D46704710B5AE
:105030000446AFF300802046BDE81040FBF7ECB813
:105040004FF0013C50F8042B51F8043B9A4221D117
:10505000A2EB0C03934313EACC1317D150F8042BA3
:1050600051F8043B9A4215D1A2EB0C03934313EA87
:10507000CC130BD150F8042B51F8043B9A4209D1C0
:10508000A2EB0C03934313EACC13DBD04FF00000E8
:10509000704700BFD01A01BAB1FA81F101F01801CE
:1050A00022FA01F0CB40C1F12001DBB2C0B2C01A3C
:1050B0002CFA01F3D11A914311EAC311E6D17047DA
:1050C00001491820ABBEFEE72600020070475FEAE8
:1050D000400C08BF91F0000F4FEA8C234FEAC12229
:1050E00043EA51514FEA1C5018BF00F5F0404FEA17
:1050F000300018BF41F000415FEA6C5C00F029808D
:10510000BCF1FF3F08BF40F080407047130C06BF62
:1051100012044FF0100C4FF0000C130E04BF1202DB
:105120000CF1080C130F04BF12010CF1040C930FC7
:1051300004BF92000CF1020CD30F04BF52000CF11B
:10514000010C11464FF00002A0F11F00A0EB0C0073
:10515000704711F0004F08BF704731F000413FF435
:10516000D5AF0B0C06BF09044FF0100C4FF0000C2C
:105170000B0E04BF09020CF1080C0B0F04BF090150
:105180000CF1040C8B0F04BF89000CF1020CCB0F47
:1051900004BF49000CF1010CCCF12003A0EB0C0082
:1051A00022FA03F302FA0CF241EA030100F10100D2
:1051B000704720F07F4C80EA030023F07F47ACEB80
:1051C000070303F57C5300F0004003F1FF032DE9D2
:1051D00080494FEA154B09B44FEA144325EA0B4EB8
:1051E00024EA03480FF2042606EB132749083E7809
:1051F0005FEA320203FB0667C7F5000707FB06F606
:105200004FEA54374FEAD64606F1020607FB066C12
:10521000CCF1005C4FEA1C472CEA074C07FB06F474
:105220000CFB06F504EB15464FEA961634BF00203A
:105230004FF000404FEAD13706FB07FC4FEA1C4C09
:105240000CFB0BF7D21B03FB0CF761EB07010CFB0C
:105250000EF7B0EB074072EB17420CFB08F734BFB8
:10526000A2EB0742B2EB074261EB17414FEA0C4455
:105270004FEA910706FB07FC4FEA1C4C0CFB0BF7AF
:10528000B0EBC74072EB573203FB0CF734BFA2EB15
:10529000C742B2EBC74261EB57310CFB0EF7B0EBE4
:1052A000C70072EB57720CFB08F734BFA2EBC702C2
:1052B000B2EBC70261EB5771039F4FEA816141EA8C
:1052C000921104EBCC044FEAD1374FEA826206FB1D
:1052D00007FC42EA90124FEA80604FEA1C4C0CFB3C
:1052E0000BF7D21B03FB0CF761EB07010CFB0EF76E
:1052F000B0EB074072EB17420CFB08F734BFA2EB90
:105300000742B2EB074261EB17414FEA8C554FEA77
:10531000910704EB9C2406FB07FC4FEA1C4C0CFB9A
:105320000BF7B0EBC74072EB573203FB0CF734BFFF
:10533000A2EBC742B2EBC74261EB57310CFB0EF751
:10534000B0EBC70072EB57720CFB08F734BFA2EB4F
:10535000C702B2EBC70261EB577115EB4C254FEA60
:10536000816141EA92114FEA82624FEAD13742EA03
:10537000901206FB07FC44F100044FEA80604FEAFC
:105380001C4C0CFB0BF7D21B03FB0CF761EB07016A
:105390000CFB0EF7B0EB074072EB17420CFB08F763
:1053A00034BFA2EB0742B2EB074261EB174115EBAA
:1053B0001C154FEA813141EA92414FEA823242EABA
:1053C00090424FEA80304FEA0C7644F1000448EAFC
:1053D00003434EEA0B484FF0000EB2EB080C71EBA2
:1053E000030724BF624639464EEB0E0E4FF0000B0A
:1053F0000018524149414BEB0B0BB2EB080C71EB1F
:1054000003077BF1000B24BF624639464EEB0E0EBC
:105410004FF0000B0018524149414BEB0B0BB2EB24
:10542000080C71EB03077BF1000B24BF6246394681
:105430004EEB0E0E51EA020718BF46F0010616EBBE
:105440000E7655F1000254F1000103D5BDE8890143
:10545000BDE80088BDE88901BDE80048B6195241A1
:1054600041EB0101A3F10103704780807F7E7D7CC9
:105470007B7A7978777676757473727171706F6EE6
:105480006E6D6C6C6B6A6A69686867666665646491
:10549000636362616160605F5F5E5E5D5D5C5C5B1B
:1054A0005B5A5A595958585757565655555554548A
:1054B000535352525251515050504F4F4F4E4E4DE8
:1054C0004D4D4C4C4C4B4B4B4A4A4A494949484834
:1054D0004847474747464646454545444444444374
:1054E00043434342424242414141002B9C4630D417
:1054F00077002BD01CB54FEA370703B44FF01000EC
:105500004FF01001BAF1000F06D0BCF1000FDCBF64
:1055100040F0080040F008014FF000000FBCBDE86B
:1055200010400BF1010BBBF1010F08BF5FEA170739
:1055300022BF12F1010211F101014FF0004143F1CC
:10554000000300F0004043EA00007047F9D3570819
:10555000D0E746EA064613F1400F4FEA16461FDD34
:1055600013F1200FDFBF16430A46002120335B42B0
:10557000BED0C3F1200746EA064602FA07F74FEA13
:10558000164646EA0706C3F1200722FA03F201FA9B
:1055900007F721FA03F14FF0000342EA0702A7E7F9
:1055A00046EA020646EA06464FEA164646EA01067B
:1055B000BCBF46EA0646360C4FF000034FF000022F
:1055C0004FF0000194E72DE9804C9A46934670B461
:1055D00091E8380007C831EA400C48BF34EA430C70
:1055E00003D5FFF7E6FDFFF780FFF0BCBDE8008CB8
:1055F0002DE9804C9A46934670B491E8380007C86C
:1056000010F0804F08BF13F0804F03D100F005F871
:10561000FFF76BFFF0BCBDE8008C20F07F4780EA0D
:10562000030023F07F4C07EB0C03A3F57C5300F041
:105630000040A3F1FE0392F0000F00F0B38095F05C
:10564000000F00F077802DE901494FEA11404FEA41
:10565000144621EA004800FB06FC24EA064708FB42
:1056600006F607FB08F800FB07F718EB06484CEBBB
:10567000164C4FEA124B18EB07484FEA15464CEB15
:10568000174022EA0B4E0BFB06FC25EA06470EFBF1
:1056900006F607FB0EFE0BFB07F71EEB064E4CEB68
:1056A000164C4FF000061EEB074E4CEB174B18EB59
:1056B0000B0840F1000018EB0E0B58EB000840F10E
:1056C00000008F1A4FF000013CBFC943661B14BF96
:1056D000B5EB040C00213CBFC943F61B4FEA17444D
:1056E0004EEA8E0E27EA04454FEA1C4704FB076288
:1056F0002CEA074C05FB07F70CFB05F604FB0CFC3A
:1057000016EB074642EB174216EB0C4642EB1C42E7
:105710001BEB060658EB0202414146EA9E0601D504
:10572000BDE80189B619524141EB0101A3F1010322
:10573000BDE801894FEA14454FEA114724EA0546BE
:1057400021EA074C05FB07F406FB07F70CFB06F103
:1057500005FB0CFC11EB074144EB17444FEA1247E1
:1057600011EB0C4144EB1C4422EA074C05FB07F209
:1057700006FB07F70CFB06F605FB0CFC16EB0746D1
:1057800042EB174216EB0C4642EB1C456A1854F1EB
:10579000000148BF7047B619524141EB0101A3F126
:1057A0000103704795F0000F37D04FEA11424FEADE
:1057B000144721EA024624EA074C02FB07F106FBE4
:1057C00007F70CFB06F402FB0CFC14EB074441EB5F
:1057D00017414FEA154714EB0C4441EB1C4125EAF5
:1057E000074C02FB07F506FB07F70CFB06F602FB6E
:1057F0000CFC16EB074645EB174516EB0C4645EB44
:105800001C42121951F1000148BF7047B6195241AC
:1058100041EB0101A3F1010370474FEA14454FEA40
:10582000114724EA054621EA074C05FB07F106FB70
:1058300007F70CFB06F24FF0000605FB0CFC12EB21
:10584000074241EB174112EB0C4251EB1C4148BFA0
:105850007047921841EB0101A3F101037047490021
:1058600050EAC12018BF04204A0D18BF40F00100C3
:1058700040F2FF72B2EB515F08BF40F00200012816
:1058800008BF0520704730380A2801D20120704730
:105890000020704710B500290AD00878002807D0EA
:1058A00005487844FFF7CCFB002801D0002010BD4C
:1058B0000248784410BD0000820F00007A0F0000FB
:1058C00021F00042A2F16052B2F5801F01F00043C6
:1058D00028BFD2F17F6C0BD95FEA001C43EAC202F9
:1058E00042EB507018BF704728BF20F0010070478E
:1058F000B2F5801FBCBF184670474FEA410C1CF53B
:10590000001F02D2084600F0AABA70B500F0CAF82B
:1059100000000089FFF7F6BF4FF00040A0F58000BF
:10592000704710F0004248BF4042B0FA80F310FACE
:1059300003F10AD0C3F11D0303F580634FEA415020
:1059400002EB035202EBD12170474FF00000704789
:10595000DFF848C170B51CEA111E1EBF1CEA131502
:105960009EEA0C0F95EA0C0F00F06F8081EA0304A9
:1059700023EA4C134EEAD47E21EA4C1141F4801103
:1059800043F48013AE44A1FB024CA0FB0365AEF1CF
:105990007F7E361955EB0C05A1FB034C4CF100033F
:1059A000A0FB021C16EB0C06654153F100030942F3
:1059B00018BF46F0010613F4007F0BD14FEA033104
:1059C0004FEA0530340341EA155140EA16506FF0B2
:1059D00003020AE04FEAC3214FEAC520F40241EA7C
:1059E000555140EA56506FF0020202EB2E4201EB95
:1059F000025585EACE710AD05FEA440C18BF24F044
:105A0000004450F1000041F1000120EAD47040F25E
:105A1000FE7C624500D270BDA84214BF4FF08044A6
:105A20004FF04044002E08BF0024BEF1806FA8BF95
:105A3000A1F1C041BDE8704080F282804FF00000CB
:105A400001F1C04101F0004170479EEA0C0F0CEAE1
:105A5000131518BF95EA0C0F06D04FF0000081EA2D
:105A6000030E0EF0004170BD00F01CF88900013EED
:105A700000F007B800F009B84FEA430C5FEA5C5C3D
:105A800008D081EA030100F05BB84FEA410C5FEAFD
:105A90005C5CF6D14FF00000014970470000FF0741
:105AA0000000F87F0EF1020E2EF0030E5EF8046B7C
:105AB000364205D4012A43EB030515F5001F12D821
:105AC000012841EB010C1CF5001F0CD80ED14FEA48
:105AD000D17C15F5001F0CEB4C0C0CF1020C08BF2F
